:100000003FC0000031C000001895000018950000A6
:10001000189500001895000018950000189500002C
:10002000189500001895000018950000189500001C
:10003000189500001895000018950000189500000C
:1000400018950000189500001895000018950000FC
:1000500018950000189500001895000018950000EC
:1000600018950000189500000F931F932F930FB75A
:100070000F93F09A0F910FBF2F911F910F91189529
:1000800008E00EBF0FEF0DBFC0E0D1E081E0882394
:1000900009F402C0259A01C02598519A509887E624
:1000A0008093C40088278093C50086E08093C200B7
:1000B00088E18093C10082E08093690081E08DBB7C
:1000C000F09878948827482EE2E3F1E00E948E00B1
:1000D0008091C000807209F001C0FACF8AE080935D
:1000E000C600F09B1AC0F09843942D9B02C081E09B
:1000F00001C08827082F21E08227182F882309F4C0
:1001000002C02D9A01C02D988091C000807209F024
:1001100001C0FACF842D8093C600E3CF8591882358
:1001200039F09091C00095FFFCCF8093C600F6CFC8
:0E0130000895494E5420434F554E54455200F9
:040000030000008079
:00000001FF
