:020000020000FC
:1000000025C018C018951895189518951895189525
:100010001895189518951895189518951895189578
:100020001895189518951895189518951895189568
:10003000189518950F931F932F930FB70F93F09A5E
:100040000F910FBF2F911F910F91189508E00EBFD0
:100050000FEF0DBFC0E0D1E0259A519A509887E686
:100060008093C40088278093C50086E08093C200F7
:1000700088E18093C10082E08093690081E08DBBBC
:10008000F09878948827482EE4EFF0E028D080910B
:10009000C000807209F001C0FACF8AE08093C600E8
:1000A000F09B1CC0F09843942D9B02C081E001C0DE
:1000B0008827082F21E08227182F882309F402C0FF
:1000C0002D9A01C02D98842D89838091C000807263
:1000D00009F001C0FACF89818093C600E1CF8591F4
:1000E000882339F09091C00095FFFCCF8093C60023
:1000F000F6CF0895494E5420434F554E5445520073
:00000001FF
