:1000000021C0882E8695869586958695082F8F70B7
:10001000A82E8A3008F004C08A2D805D082F08952C
:100020008A2D895C082F0895982E8F70B82E8A30FB
:1000300008F004C08B2D805D082F08958B2D895CFE
:10004000082F089508E00EBF0FEF0DBFC0E0D1E00C
:10005000519A509887E68093C40088278093C50002
:1000600086E08093C20088E18093C100E4EAF2E078
:100070000E9447018091C000807209F001C0FACF50
:100080008AE08093C600888B84E1898B8EE18A8B1D
:1000900088E28B8B82E38C8B8CE38D8B86E48E8B5A
:1000A00080E58F8B8889682E8989E82E8A89F82EC9
:1000B0008B898B878091C000807209F001C0FACFD4
:1000C00081E48093C6008091C000807209F001C075
:1000D000FACF8AE38093C600862D882E0E94010005
:1000E0008B838091C000807209F001C0FACF8B81B0
:1000F0008093C600862D982E0E9414008B838091D9
:10010000C000807209F001C0FACF8B818093C600D5
:100110008091C000807209F001C0FACF8AE080931C
:10012000C6008C898C878D898D878E898E878F8973
:10013000782E8091C000807209F001C0FACF82E46D
:100140008093C6008091C000807209F001C0FACF90
:100150008AE38093C600872D882E0E9401008B833E
:100160008091C000807209F001C0FACF8B8180932A
:10017000C600872D982E0E9414008B838091C000AA
:10018000807209F001C0FACF8B818093C600809104
:10019000C000807209F001C0FACF8AE08093C600E7
:1001A0008889482E8A89582E8C89C82E8E89D82E07
:1001B0008091C000807209F001C0FACF83E480937F
:1001C000C6008091C000807209F001C0FACF8AE3B6
:1001D0008093C600842D882E0E9401008B8380911D
:1001E000C000807209F001C0FACF8B818093C600F5
:1001F000842D982E0E9414008B838091C000807201
:1002000009F001C0FACF8B818093C6008091C000B5
:10021000807209F001C0FACF8AE08093C600809115
:10022000C000807209F001C0FACF84E48093C60058
:100230008091C000807209F001C0FACF8AE38093F8
:10024000C600852D882E0E9401008B838091C000FE
:10025000807209F001C0FACF8B818093C600852D92
:10026000982E0E9414008B838091C000807209F048
:1002700001C0FACF8B818093C6008091C00080724C
:1002800009F001C0FACF8AE08093C600FFCF8591C4
:10029000882339F09091C00095FFFCCF8093C60071
:0802A000F6CF0895534C000055
:0400000300000044B5
:00000001FF
