:020000020000FC
:100000000BC08F939F9385E19FEF9A95F1F78A95A7
:10001000D9F79F918F91089508E00EBF0FEF0DBFA4
:10002000C0E0D1E0569A882787BD83E884BD83E08D
:1000300085BD85BD8827482E81E0582E842D87BD3B
:1000400088279927888399838881998125E0332798
:100050008217930708F008C0D4DF888199818F5FE9
:100060009F4F88839983F0CF852D813009F009C097
:10007000842D8F3F09F003C08827582E01C0439478
:1000800008C0842D803009F003C081E0582E01C0E3
:040090004A94D4CFEB
:00000001FF
