:020000020000FC
:0200000073C0CB
:100004001895000018950000189500001895000038
:100014001895000018950000189500001895000028
:100024001895000018950000189500001895000018
:1000340018950000189500001895000013C00000E2
:1000440018950000189500001895000018950000F8
:1000540018950000189500001895000018950000E8
:10006400189500000F931F932F930FB70F93F09AD7
:100074000F910FBF2F911F910F911895482E80302B
:1000840009F003C0882708952CC0842D813009F01D
:1000940003C089E1089525C0842D823009F003C08E
:1000A40082E308951EC0842D833009F003C08BE4DD
:1000B400089517C0842D843009F003C084E60895A0
:1000C40010C0842D853009F003C08BE4089509C065
:1000D400842D863009F003C082E3089502C089E1CB
:1000E4000895089508E00EBF0FEF0DBFC0E0D1E002
:1000F400259A85E085BD80916E00816080936E00B5
:10010400F098519A509887E68093C400882780938A
:10011400C50086E08093C20088E18093C100E2EDCF
:10012400F1E04AD08091C000807209F001C0FACF9A
:100134008AE08093C60078948827682E8827882EC2
:100144008827782E8827582EF09B35C0F098639422
:10015400862D843608F402C08827682E862D282D23
:10016400821708F002C02D9A01C02D987394872D30
:10017400843608F420C08827782E5394852D88303F
:1001840008F402C08827582E852D482E77DF882E44
:100194008A838091C000807209F001C0FACF8A81FD
:1001A4008093C6008091C000807209F001C0FACF2C
:1001B4008AE08093C600C8CF8591882339F0909156
:1001C400C00095FFFCCF8093C600F6CF0895534F2F
:0801D40046542050574D000075
:00000001FF
