:020000020000FC
:1000000008E00EBF0FEF0DBFC0E0D1E0519A50984D
:1000100087E68093C40088278093C50086E080939C
:10002000C20088E18093C100E8E7F1E08FD08091C1
:10003000C000807209F001C0FACF8AE08093C60048
:10004000F99B01C0FDCF882781BD882782BD81EA49
:1000500080BD04E00FBBF99AF99B01C0FDCF81E0A0
:1000600081BD882782BD82EB80BD04E00FBBF99A79
:10007000F99B01C0FDCF82E081BD882782BD83EC62
:1000800080BD04E00FBBF99AF99B01C0FDCF83E06E
:1000900081BD882782BD84ED80BD04E00FBBF99A45
:1000A000F99B01C0FDCF882781BD882782BDF89AC2
:1000B00080B5082F482EF99B01C0FDCF81E081BD9E
:1000C000882782BDF89A80B5082F582EF99B01C069
:1000D000FDCF82E081BD882782BDF89A80B5082FC8
:1000E000682EF99B01C0FDCF83E081BD882782BDCA
:1000F000F89A80B5082F782E842D813A09F019C01E
:10010000852D823B09F015C0862D833C09F011C076
:10011000872D843D09F00DC0EEE6F1E017D0809107
:10012000C000807209F001C0FACF8AE08093C60057
:100130000CC0E2E6F1E00AD08091C000807209F0C4
:1001400001C0FACF8AE08093C600FFCF8591882353
:1001500039F09091C00095FFFCCF8093C600F6CF98
:100160000895454550524F4D204641494C00454564
:1001700050524F4D204F4B00454550524F4D20544B
:04018000455354008F
:00000001FF
