:1000000021C0882E8695869586958695082F8F70B7
:10001000782E8A3008F004C0872D805D082F08955F
:10002000872D895C082F0895A82E8F70982E8A300E
:1000300008F004C0892D805D082F0895892D895C02
:10004000082F089508E00EBF0FEF0DBFC0E0D1E00C
:10005000519A509887E68093C40088278093C50002
:1000600086E08093C20088E18093C100EEE0F2E078
:100070000E94FB00ECE0F2E00E94FB0083E06AE0FB
:100080000E940D01582E8091C000807209F001C0BD
:10009000FACF8DE48093C6008091C000807209F091
:1000A00001C0FACF8AE38093C600852D882E0E9476
:1000B00001008B838091C000807209F001C0FACFEB
:1000C0008B818093C600852DA82E0E9414008B83FF
:1000D0008091C000807209F001C0FACF8B818093BB
:1000E000C6008091C000807209F001C0FACF8AE09A
:1000F0008093C60088EC64E60E941101682E80910E
:10010000C000807209F001C0FACF83E58093C60079
:100110008091C000807209F001C0FACF8AE3809319
:10012000C600862D882E0E9401008B838091C0001E
:10013000807209F001C0FACF8B818093C600862DB2
:10014000A82E0E9414008B838091C000807209F059
:1001500001C0FACF8B818093C6008091C00080726D
:1001600009F001C0FACF8AE08093C60084E066E01F
:100170000E941101482E8091C000807209F001C0D8
:10018000FACF81E48093C6008091C000807209F0AC
:1001900001C0FACF8AE38093C600842D882E0E9486
:1001A00001008B838091C000807209F001C0FACFFA
:1001B0008B818093C600842DA82E0E9414008B830F
:1001C0008091C000807209F001C0FACF8B818093CA
:1001D000C6008091C000807209F001C0FACF8AE0A9
:1001E0008093C600E6E1F2E00E94FB00ECE0F2E062
:1001F0000E94FB00FFCF8591882339F09091C000C9
:1002000095FFFCCF8093C600F6CF08950A004558AD
:100210005445524E00004F4B0000869F802D112404
:100220000895482F460F5527551F4F3F510509F098
:0A02300010F4860F08958FEF089573
:0400000300000044B5
:00000001FF
