:1000000021C0682E8695869586958695082F8F70D7
:10001000882E8A3008F004C0882D805D082F08954E
:10002000882D895C082F0895782E8F70982E8A303D
:1000300008F004C0892D805D082F0895892D895C02
:10004000082F089508E00EBF0FEF0DBFC0E0D1E00C
:10005000519A509887E68093C40088278093C50002
:1000600086E08093C20088E18093C100E6E8F2E078
:100070000E9438018091C000807209F001C0FACF5F
:100080008AE08093C6008827A82E8827482E8827D4
:10009000C82E8827D82E8827B82E81E0A82E82E087
:1000A000482E83E0C82E84E0D82E85E0B82E8091BB
:1000B000C000807209F001C0FACF88E48093C600C6
:1000C0008091C000807209F001C0FACF8AE380936A
:1000D000C60081E0682E0E9401008B838091C000E1
:1000E000807209F001C0FACF8B818093C60081E055
:1000F000782E0E9414008B838091C000807209F0DA
:1001000001C0FACF8B818093C6008091C0008072BD
:1001100009F001C0FACF8AE08093C6008091C00048
:10012000807209F001C0FACF82E58093C600809109
:10013000C000807209F001C0FACF8AE38093C60044
:10014000842D682E0E9401008B838091C0008072F4
:1001500009F001C0FACF8B818093C600842D782EE0
:100160000E9414008B838091C000807209F001C04E
:10017000FACF8B818093C6008091C000807209F015
:1001800001C0FACF8AE08093C6008091C0008072DF
:1001900009F001C0FACF8CE48093C6008091C000C2
:1001A000807209F001C0FACF8AE38093C60085E02F
:1001B000682E0E9401008B838091C000807209F03C
:1001C00001C0FACF8B818093C60085E0782E0E9413
:1001D00014008B838091C000807209F001C0FACFB7
:1001E0008B818093C6008091C000807209F001C0AD
:1001F000FACF8AE08093C60081E0582E82E0E82E94
:100200008091C000807209F001C0FACF87E5809329
:10021000C6008091C000807209F001C0FACF8AE365
:100220008093C600852D682E0E9401008B838091EB
:10023000C000807209F001C0FACF8B818093C600A4
:10024000852D782E0E9414008B838091C0008072CF
:1002500009F001C0FACF8B818093C6008091C00065
:10026000807209F001C0FACF8AE08093C600FFCF08
:100270008591882339F09091C00095FFFCCF809341
:0A028000C600F6CF089554550000A3
:0400000300000044B5
:00000001FF
