:1000000054C00000189500001895000042C0000080
:10001000189500001895000018950000189500002C
:10002000189500001895000018950000189500001C
:10003000189500001895000018950000189500000C
:1000400018950000189500001895000018950000FC
:1000500018950000189500001895000018950000EC
:1000600018950000189500000F9308E099278894D0
:10007000881F991F10F0921718F0921B089401C066
:1000800088940A95A9F7881F0F910895EDDF892FAD
:1000900008950F931F932F930FB70F93F09A0F911B
:1000A0000FBF2F911F910F91189508E00EBF0FEF12
:1000B0000DBFC0E0D1E08827882309F402C0209A50
:1000C00001C02098289A519A509887E68093C400DE
:1000D00088278093C50086E08093C20088E18093E2
:1000E000C1008091680081608093680080916B00FE
:1000F000816080936B008FB780688FBFF098E0EBD2
:10010000F1E00E94C9008091C000807209F001C036
:10011000FACF8AE08093C6008827482EF09B38C02B
:10012000F098189B02C081E001C08827082F80301A
:1001300009F02EC04394E8EAF1E00E94C900842D42
:100140002AE00E943400082F805D8B838091C000DC
:10015000807209F001C0FACF8B818093C600842D94
:100160002AE00E944600082F805D8B838091C000AA
:10017000807209F001C0FACF8B818093C600809114
:10018000C000807209F001C0FACF8AE08093C600F7
:10019000C5CF8591882339F09091C00095FFFCCFA1
:1001A0008093C600F6CF0895434F554E543A000051
:0E01B0005043494E5420434F554E5445520083
:04000003000000AA4F
:00000001FF
