:020000020000FC
:020000003FC0FF
:1000040018950000189500002DC0000018950000F8
:100014001895000018950000189500001895000028
:100024001895000018950000189500001895000018
:100034001895000018950000189500001895000008
:1000440018950000189500001895000018950000F8
:1000540018950000189500001895000018950000E8
:10006400189500000F931F932F930FB70F93F09AD7
:100074000F910FBF2F911F910F91189508E00EBF9C
:100084000FEF0DBFC0E0D1E02098289A519A509804
:1000940087E68093C40088278093C50086E0809318
:1000A400C20088E18093C10081E080936B0080915D
:1000B4006800816080936800F0987894EAE6F1E043
:1000C40043D08091C000807209F001C0FACF8AE069
:1000D4008093C6008827482EF09B35C0F098189B63
:1000E40002C081E001C08827082F803009F02BC0AE
:1000F4004394E2E6F1E028D0842D2AE03BD0082F97
:10010400805D89838091C000807209F001C0FACFBC
:1001140089818093C600842D2AE03ED0082F805D1B
:1001240089838091C000807209F001C0FACF89816F
:100134008093C6008091C000807209F001C0FACF9C
:100144008AE08093C600C8CF8591882339F09091C6
:10015400C00095FFFCCF8093C600F6CF0895434FAF
:10016400554E543A00005043494E5420434F554E87
:10017400544552000F9308E099278894881F991FCB
:1001840010F0921718F0921B089401C088940A95F5
:0E019400A9F7881F0F910895EDDF892F0895B8
:00000001FF
