:020000020000FC
:020000003FC0FF
:100004001895000018950000189500001895000038
:100014001895000018950000189500001895000028
:1000240021C00000189500001895000018950000E4
:100034001895000018950000189500001895000008
:1000440018950000189500001895000018950000F8
:1000540018950000189500001895000018950000E8
:10006400189500000F931F932F930FB70F93F09AD7
:100074000F910FBF2F911F910F91189508E00EBF9C
:100084000FEF0DBFC0E0D1E081E0882309F402C086
:10009400259A01C02598519A509887E68093C40008
:1000A40088278093C50086E08093C20088E180930E
:1000B400C10087E08093B10081E080937000F098E4
:1000C4007894E2E6F1E040D08091C000807209F0BB
:1000D40001C0FACF8AE08093C6008827482EF09B9F
:1000E40032C0F0984394842D8D3309F02CC08827B6
:1000F400482E2D9B02C081E001C08827082F21E0F3
:100104008227182F882309F402C02D9A01C02D9844
:100114008091C000807209F001C0FACF84E5809319
:10012400C6008091C000807209F001C0FACF82E35A
:100134008093C6008091C000807209F001C0FACF9C
:100144008AE08093C600CBCF8591882339F09091C3
:10015400C00095FFFCCF8093C600F6CF08955449A4
:100164004D4552322049525120424C494E4B0000D9
:00000001FF
