:020000020000FC
:1000000008E00EBF0FEF0DBFC0E0D1E0259A529877
:100010005A9A519A509887E68093C4008827809313
:10002000C50086E08093C20088E18093C100E0EDC6
:10003000F0E043D08091C000807209F001C0FACF97
:100040008AE08093C6004A9B02C081E001C08827F5
:10005000082F882309F402C0882701C081E0182FE7
:10006000882309F40BC02D9A8091C000807209F09A
:1000700001C0FACF81E38093C6000AC02D98809119
:10008000C000807209F001C0FACF80E38093C600FF
:10009000882788838881843608F00EC08F939F93C9
:1000A00085E19FEF9A95F1F78A95D9F79F918F9106
:1000B000888183958883EECFC6CF8591882339F0D8
:1000C0009091C00095FFFCCF8093C600F6CF0895B5
:0600D00048656C6C6F0036
:00000001FF
