:1000000021C0782E8695869586958695082F8F70C7
:10001000682E8A3008F004C0862D805D082F089570
:10002000862D895C082F0895982E8F70882E8A302F
:1000300008F004C0882D805D082F0895882D895C04
:10004000082F089508E00EBF0FEF0DBFC0E0D1E00C
:10005000519A509887E68093C40088278093C50002
:1000600086E08093C20088E18093C100E8EFF1E070
:100070000E94F1008091C000807209F001C0FACFA7
:100080008AE08093C60085E0482E8091C00080728F
:1000900009F001C0FACF84E48093C6008091C000CB
:1000A000807209F001C0FACF8AE38093C600842DE4
:1000B000782E0E9401008B838091C000807209F02D
:1000C00001C0FACF8B818093C600842D982E0E94A8
:1000D00014008B838091C000807209F001C0FACFB8
:1000E0008B818093C6008091C000807209F001C0AE
:1000F000FACF8AE08093C60089E0482E8091C00044
:10010000807209F001C0FACF84E58093C600809127
:10011000C000807209F001C0FACF8AE38093C60064
:10012000842D782E0E9401008B838091C000807204
:1001300009F001C0FACF8B818093C600842D982EE0
:100140000E9414008B838091C000807209F001C06E
:10015000FACF8B818093C6008091C000807209F035
:1001600001C0FACF8AE08093C60082E091E08CE57E
:10017000582E8091C000807209F001C0FACF82E54C
:100180008093C6008091C000807209F001C0FACF50
:100190008AE38093C600852D782E0E9401008B8310
:1001A0008091C000807209F001C0FACF8B818093EA
:1001B000C600852D982E0E9414008B838091C0006C
:1001C000807209F001C0FACF8B818093C6008091C4
:1001D000C000807209F001C0FACF8AE08093C600A7
:1001E000FFCF8591882339F09091C00095FFFCCF17
:0C01F0008093C600F6CF08954C4200003A
:0400000300000044B5
:00000001FF
