:1000000021C0482E8695869586958695082F8F70F7
:10001000D82E8A3008F004C08D2D805D082F0895F9
:100020008D2D895C082F0895582E8F70E82E8A3008
:1000300008F004C08E2D805D082F08958E2D895CF8
:10004000082F089508E00EBF0FEF0DBFC0E0D1E00C
:10005000519A509887E68093C40080E08093C50051
:1000600086E08093C20088E18093C100EEE0F4E076
:100070000E94FC018091C000807209F001C0FACF9B
:100080008AE08093C60080E0882E8EED882E8BE873
:10009000882E8091C000807209F001C0FACF86E4FA
:1000A0008093C6008091C000807209F001C0FACF31
:1000B0008AE38093C600882D482E0E9401008D831C
:1000C0008091C000807209F001C0FACF8D818093C9
:1000D000C600882D582E0E9414008D838091C00088
:1000E000807209F001C0FACF8D818093C6008091A3
:1000F000C000807209F001C0FACF8AE08093C60088
:100100008F838FE1982E8BE289878091C000807267
:1001100009F001C0FACF81E48093C6008091C0004D
:10012000807209F001C0FACF8AE38093C600892D5E
:10013000482E0E9401008D838091C000807209F0DA
:1001400001C0FACF8D818093C600892D582E0E9460
:1001500014008D838091C000807209F001C0FACF35
:100160008D818093C6008091C000807209F001C02B
:10017000FACF8AE08093C60080E0A82E8B878C8718
:100180008D878091C000807209F001C0FACF8AE5A6
:100190008093C6008091C000807209F001C0FACF40
:1001A0008AE38093C6008A2D482E0E9401008D8329
:1001B0008091C000807209F001C0FACF8D818093D8
:1001C000C6008A2D582E0E9414008D838091C00095
:1001D000807209F001C0FACF8D818093C6008091B2
:1001E000C000807209F001C0FACF8AE08093C60097
:1001F00081E08E8782E08F8781E092E0888B998B07
:10020000B82E8091C000807209F001C0FACF8CE452
:100210008093C6008091C000807209F001C0FACFBF
:100220008AE38093C6008B2D482E0E9401008D83A7
:100230008091C000807209F001C0FACF8D81809357
:10024000C6008B2D582E0E9414008D838091C00013
:10025000807209F001C0FACF8D818093C600809131
:10026000C000807209F001C0FACF8AE08093C60016
:1002700082E091E08B8B9C8BC82E8091C0008072B5
:1002800009F001C0FACF82E48093C6008091C000DB
:10029000807209F001C0FACF8AE38093C6008C2DEA
:1002A000482E0E9401008D838091C000807209F069
:1002B00001C0FACF8D818093C6008C2D582E0E94EC
:1002C00014008D838091C000807209F001C0FACFC4
:1002D0008D818093C6008091C000807209F001C0BA
:1002E000FACF8AE08093C6008E8B84E18F8B8EE1FB
:1002F000888F80E0682E782E8AE0F82E80E08AE0F1
:10030000782E84E1F82E81E0682E8EE1782EF82E8A
:1003100083E0682E8CE3782E8091C000807209F013
:1003200001C0FACF89E48093C6008091C00080723A
:1003300009F001C0FACF8AE38093C600862D482ECB
:100340000E9401008D838091C000807209F001C07D
:10035000FACF8D818093C600862D582E0E941400FE
:100360008D838091C000807209F001C0FACF8D8129
:100370008093C6008091C000807209F001C0FACF5E
:100380008AE08093C6008091C000807209F001C0AD
:10039000FACF86E58093C6008091C000807209F094
:1003A00001C0FACF8AE38093C600872D482E0E94B1
:1003B00001008D838091C000807209F001C0FACFE6
:1003C0008D818093C600872D582E0E9414008D8346
:1003D0008091C000807209F001C0FACF8D818093B6
:1003E000C6008091C000807209F001C0FACF8AE097
:1003F0008093C600FFCF08958591882339F09091AE
:10040000C00095FFFCCF8093C600F6CF08954259F7
:0404100054455300FC
:0400000300000044B5
:00000001FF
