:020000020000FC
:020000003FC0FF
:100004001895000018950000189500001895000038
:100014001895000018950000189500001895000028
:100024001895000018950000189500001895000018
:1000340019C00000189500001895000018950000DC
:1000440018950000189500001895000018950000F8
:1000540018950000189500001895000018950000E8
:10006400189500000F931F932F930FB70F93F09AD7
:100074000F910FBF2F911F910F91189508E00EBF9C
:100084000FEF0DBFC0E0D1E081E0882309F402C086
:10009400259A01C02598519A509887E68093C40008
:1000A40088278093C50086E08093C20088E180930E
:1000B400C10084E08093810081E080936F00F09818
:1000C4007894EEE3F1E02ED08091C000807209F0C4
:1000D40001C0FACF8AE08093C600F09B22C0F0985A
:1000E4002D9B02C081E001C08827082F21E08227D0
:1000F400182F882309F402C02D9A01C02D988091ED
:10010400C000807209F001C0FACF84E58093C60074
:100114008091C000807209F001C0FACF8AE0809318
:10012400C600DBCF8591882339F09091C00095FFFC
:10013400FCCF8093C600F6CF089554494D45523103
:0C0144002049525120424C494E4B000013
:00000001FF
