:1000000021C0782E8695869586958695082F8F70C7
:10001000882E8A3008F004C0882D805D082F08954E
:10002000882D895C082F0895982E8F70A82E8A300D
:1000300008F004C08A2D805D082F08958A2D895C00
:10004000082F089508E00EBF0FEF0DBFC0E0D1E00C
:10005000519A509887E68093C40080E08093C50051
:1000600086E08093C20088E18093C100EAE3F2E079
:100070000E9412018091C000807209F001C0FACF85
:100080008AE08093C60080E0B82E82E0C82E84E02B
:10009000D82E86E0E82E80E0482E82E0482E86E0CA
:1000A000482E8CE0482E8091C000807209F001C07B
:1000B000FACF82E58093C6008091C000807209F07B
:1000C00001C0FACF8AE38093C600842D782E0E9467
:1000D000010089878091C000807209F001C0FACFC9
:1000E00089858093C600842D982E0E9414008987EC
:1000F0008091C000807209F001C0FACF8985809399
:10010000C6008091C000807209F001C0FACF8AE079
:100110008093C6008BE0F82E85E18C878FE18D8778
:1001200080E0682E8BE0682E80E2682E8FE3682ED8
:100130008091C000807209F001C0FACF8CE48093F6
:10014000C6008091C000807209F001C0FACF8AE336
:100150008093C600862D782E0E94010089878091A9
:10016000C000807209F001C0FACF89858093C60073
:10017000862D982E0E94140089878091C00080727D
:1001800009F001C0FACF89858093C6008091C00034
:10019000807209F001C0FACF8AE08093C60080E047
:1001A000582E81E0582E84E0582E89E0582E80E1A8
:1001B000582E8091C000807209F001C0FACF86E409
:1001C0008093C6008091C000807209F001C0FACF10
:1001D0008AE38093C600852D782E0E9401008987CE
:1001E0008091C000807209F001C0FACF89858093A8
:1001F000C600852D982E0E94140089878091C0002A
:10020000807209F001C0FACF89858093C600809181
:10021000C000807209F001C0FACF8AE08093C60066
:10022000FFCF08958591882339F09091C00095FF04
:0E023000FCCF8093C600F6CF08954C4300002B
:0400000300000044B5
:00000001FF
