:1000000052C00000189500001895000018950000D7
:10001000189500001895000018950000189500002C
:10002000189500001895000018950000189500001C
:10003000189500001895000018950000189500000C
:1000400018950000189500000EC0000018950000DB
:1000500018950000189500001895000018950000EC
:100060001895000018950F931F932F930FB70F93B8
:10007000852D8395082F8F708C83242D821709F48A
:100080000CC08091C600282F852DE5E0F1E0002707
:10009000E80FF01F20838C81582E0F910FBF2F91F6
:1000A0001F910F91189508E00EBF0FEF0DBFC0E034
:1000B000D1E0519A509887E68093C40080E0809305
:1000C000C50086E08093C20088E18093C1008091E2
:1000D000C10080688093C1008FB780688FBFE6E859
:1000E000F1E00E94B8008091C000807209F001C068
:1000F000FACF8AE08093C600852D242D821709F45B
:1001000003C081E0082F02C080E0082F802F182F45
:1001100002C080E0182F812F882309F427C0852D85
:10012000242D821709F003C080E0082F0FC0842D12
:10013000E5E0F1E00027E80FF01F80818E8B842D31
:100140008395182F8F70482E8E89082F802F182F97
:1001500002C080E0182F812F682E8091C00080722D
:1001600009F001C0FACF862D8093C600C5CF08954F
:100170008591882339F09091C00095FFFCCF809342
:0C018000C600F6CF0895525849525100B5
:04000003000000A653
:00000001FF
