:100000000BC08F939F9385E19FEF9A95F1F78A95A7
:10001000D9F79F918F91089508E00EBF0FEF0DBFA4
:10002000C0E0D1E0519A509887E68093C4008827B9
:100030008093C50086E08093C20088E18093C10070
:10004000569A882787BD83E884BD83E085BD85BD3A
:10005000239A80E88093B30083E88093B00084E023
:100060008093B1008093B100219A80E4809388004E
:1000700082E8809380008AE08093810080938100F1
:10008000E6E3F1E00E9490008091C000807209F0E8
:1000900001C0FACF8AE08093C6008827582E80E8F6
:1000A000682E80E4782E8827482E852D87BD862DE2
:1000B0008093B300872D80938800882799278B83AE
:1000C0009C838B819C8125E033278217930708F05E
:1000D00009C00E9401008B819C818F5F9F4F8B83A1
:1000E0009C83EFCF5394852D6394862D7394872D35
:1000F0004394842D803009F012C08091C00080723A
:1001000009F001C0FACF84E48093C6008091C0005A
:10011000807209F001C0FACF8AE08093C600C5CF93
:100120008591882339F09091C00095FFFCCF809392
:0C013000C600F6CF089550574D33000074
:0400000300000018E1
:00000001FF
